{
  "_format": "hh-sol-artifact-1",
  "contractName": "SubscriptionManager",
  "sourceName": "contracts/SubscriptionManager.sol",
  "abi": [
    {
      "inputs": [
        {
          "internalType": "address",
          "name": "_usdcToken",
          "type": "address"
        },
        {
          "internalType": "address",
          "name": "_treasury",
          "type": "address"
        }
      ],
      "stateMutability": "nonpayable",
      "type": "constructor"
    },
    {
      "inputs": [
        {
          "internalType": "address",
          "name": "owner",
          "type": "address"
        }
      ],
      "name": "OwnableInvalidOwner",
      "type": "error"
    },
    {
      "inputs": [
        {
          "internalType": "address",
          "name": "account",
          "type": "address"
        }
      ],
      "name": "OwnableUnauthorizedAccount",
      "type": "error"
    },
    {
      "inputs": [],
      "name": "ReentrancyGuardReentrantCall",
      "type": "error"
    },
    {
      "anonymous": false,
      "inputs": [
        {
          "indexed": true,
          "internalType": "address",
          "name": "previousOwner",
          "type": "address"
        },
        {
          "indexed": true,
          "internalType": "address",
          "name": "newOwner",
          "type": "address"
        }
      ],
      "name": "OwnershipTransferred",
      "type": "event"
    },
    {
      "anonymous": false,
      "inputs": [
        {
          "indexed": true,
          "internalType": "uint256",
          "name": "planTier",
          "type": "uint256"
        },
        {
          "indexed": false,
          "internalType": "uint256",
          "name": "maxSubscriptions",
          "type": "uint256"
        },
        {
          "indexed": false,
          "internalType": "uint256",
          "name": "maxClients",
          "type": "uint256"
        }
      ],
      "name": "PlanLimitsUpdated",
      "type": "event"
    },
    {
      "anonymous": false,
      "inputs": [
        {
          "indexed": false,
          "internalType": "uint256",
          "name": "newPrice",
          "type": "uint256"
        }
      ],
      "name": "PriceUpdated",
      "type": "event"
    },
    {
      "anonymous": false,
      "inputs": [
        {
          "indexed": true,
          "internalType": "address",
          "name": "user",
          "type": "address"
        },
        {
          "indexed": false,
          "internalType": "uint256",
          "name": "expiry",
          "type": "uint256"
        },
        {
          "indexed": false,
          "internalType": "uint256",
          "name": "months",
          "type": "uint256"
        }
      ],
      "name": "Subscribed",
      "type": "event"
    },
    {
      "anonymous": false,
      "inputs": [
        {
          "indexed": false,
          "internalType": "address",
          "name": "newTreasury",
          "type": "address"
        }
      ],
      "name": "TreasuryUpdated",
      "type": "event"
    },
    {
      "inputs": [
        {
          "internalType": "address",
          "name": "",
          "type": "address"
        }
      ],
      "name": "expiryTimestamps",
      "outputs": [
        {
          "internalType": "uint256",
          "name": "",
          "type": "uint256"
        }
      ],
      "stateMutability": "view",
      "type": "function"
    },
    {
      "inputs": [
        {
          "internalType": "address",
          "name": "user",
          "type": "address"
        },
        {
          "internalType": "uint256",
          "name": "additionalDays",
          "type": "uint256"
        }
      ],
      "name": "extendSubscription",
      "outputs": [],
      "stateMutability": "nonpayable",
      "type": "function"
    },
    {
      "inputs": [
        {
          "internalType": "address",
          "name": "user",
          "type": "address"
        }
      ],
      "name": "getDaysRemaining",
      "outputs": [
        {
          "internalType": "uint256",
          "name": "",
          "type": "uint256"
        }
      ],
      "stateMutability": "view",
      "type": "function"
    },
    {
      "inputs": [
        {
          "internalType": "address",
          "name": "user",
          "type": "address"
        }
      ],
      "name": "getExpiry",
      "outputs": [
        {
          "internalType": "uint256",
          "name": "",
          "type": "uint256"
        }
      ],
      "stateMutability": "view",
      "type": "function"
    },
    {
      "inputs": [
        {
          "internalType": "uint256",
          "name": "planTier",
          "type": "uint256"
        }
      ],
      "name": "getPlanLimits",
      "outputs": [
        {
          "components": [
            {
              "internalType": "uint256",
              "name": "maxSubscriptions",
              "type": "uint256"
            },
            {
              "internalType": "uint256",
              "name": "maxClients",
              "type": "uint256"
            },
            {
              "internalType": "bool",
              "name": "hasAnalytics",
              "type": "bool"
            },
            {
              "internalType": "bool",
              "name": "hasApiAccess",
              "type": "bool"
            }
          ],
          "internalType": "struct SubscriptionManager.PlanLimits",
          "name": "",
          "type": "tuple"
        }
      ],
      "stateMutability": "view",
      "type": "function"
    },
    {
      "inputs": [
        {
          "internalType": "address",
          "name": "user",
          "type": "address"
        }
      ],
      "name": "isActive",
      "outputs": [
        {
          "internalType": "bool",
          "name": "",
          "type": "bool"
        }
      ],
      "stateMutability": "view",
      "type": "function"
    },
    {
      "inputs": [],
      "name": "owner",
      "outputs": [
        {
          "internalType": "address",
          "name": "",
          "type": "address"
        }
      ],
      "stateMutability": "view",
      "type": "function"
    },
    {
      "inputs": [
        {
          "internalType": "uint256",
          "name": "",
          "type": "uint256"
        }
      ],
      "name": "planLimits",
      "outputs": [
        {
          "internalType": "uint256",
          "name": "maxSubscriptions",
          "type": "uint256"
        },
        {
          "internalType": "uint256",
          "name": "maxClients",
          "type": "uint256"
        },
        {
          "internalType": "bool",
          "name": "hasAnalytics",
          "type": "bool"
        },
        {
          "internalType": "bool",
          "name": "hasApiAccess",
          "type": "bool"
        }
      ],
      "stateMutability": "view",
      "type": "function"
    },
    {
      "inputs": [],
      "name": "pricePerMonth",
      "outputs": [
        {
          "internalType": "uint256",
          "name": "",
          "type": "uint256"
        }
      ],
      "stateMutability": "view",
      "type": "function"
    },
    {
      "inputs": [],
      "name": "renounceOwnership",
      "outputs": [],
      "stateMutability": "nonpayable",
      "type": "function"
    },
    {
      "inputs": [
        {
          "internalType": "uint256",
          "name": "_pricePerMonth",
          "type": "uint256"
        }
      ],
      "name": "setPricePerMonth",
      "outputs": [],
      "stateMutability": "nonpayable",
      "type": "function"
    },
    {
      "inputs": [
        {
          "internalType": "address",
          "name": "_treasury",
          "type": "address"
        }
      ],
      "name": "setTreasury",
      "outputs": [],
      "stateMutability": "nonpayable",
      "type": "function"
    },
    {
      "inputs": [
        {
          "internalType": "uint256",
          "name": "months",
          "type": "uint256"
        }
      ],
      "name": "subscribe",
      "outputs": [],
      "stateMutability": "nonpayable",
      "type": "function"
    },
    {
      "inputs": [
        {
          "internalType": "address",
          "name": "newOwner",
          "type": "address"
        }
      ],
      "name": "transferOwnership",
      "outputs": [],
      "stateMutability": "nonpayable",
      "type": "function"
    },
    {
      "inputs": [],
      "name": "treasury",
      "outputs": [
        {
          "internalType": "address",
          "name": "",
          "type": "address"
        }
      ],
      "stateMutability": "view",
      "type": "function"
    },
    {
      "inputs": [
        {
          "internalType": "uint256",
          "name": "planTier",
          "type": "uint256"
        },
        {
          "internalType": "uint256",
          "name": "maxSubscriptions",
          "type": "uint256"
        },
        {
          "internalType": "uint256",
          "name": "maxClients",
          "type": "uint256"
        },
        {
          "internalType": "bool",
          "name": "hasAnalytics",
          "type": "bool"
        },
        {
          "internalType": "bool",
          "name": "hasApiAccess",
          "type": "bool"
        }
      ],
      "name": "updatePlanLimits",
      "outputs": [],
      "stateMutability": "nonpayable",
      "type": "function"
    },
    {
      "inputs": [],
      "name": "usdcToken",
      "outputs": [
        {
          "internalType": "contract IERC20",
          "name": "",
          "type": "address"
        }
      ],
      "stateMutability": "view",
      "type": "function"
    }
  ],
  "bytecode": "0x60a06040526298968060025534801561001757600080fd5b5060405161117d38038061117d833981016040819052610036916103bd565b338061005d57604051631e4fbdf760e01b8152600060048201526024015b60405180910390fd5b61006681610351565b50600180556001600160a01b0382166100c15760405162461bcd60e51b815260206004820152601a60248201527f496e76616c6964205553444320746f6b656e20616464726573730000000000006044820152606401610054565b6001600160a01b0381166101175760405162461bcd60e51b815260206004820152601860248201527f496e76616c6964207472656173757279206164647265737300000000000000006044820152606401610054565b6001600160a01b03918216608090815260048054929093166001600160a01b0319909216919091179091556040805180830182526001808252600560208084018281526000858701818152606080880183815283805286865297517f05b8ccbb9d4d8fb16ea74ce3c29a41f1b461fbdaff4714a0d9a8eb05499746bc5592517f05b8ccbb9d4d8fb16ea74ce3c29a41f1b461fbdaff4714a0d9a8eb05499746bd55517f05b8ccbb9d4d8fb16ea74ce3c29a41f1b461fbdaff4714a0d9a8eb05499746be80549751151561010090810261ff0019931515841661ffff199a8b1617179091558851808b018a52601981526064818701908152818b018981528287018a81528a875289895292517f1471eb6eb2c5e789fc3de43f8ce62938c7d1836ec861730447e2ada8fd81017b5590517f1471eb6eb2c5e789fc3de43f8ce62938c7d1836ec861730447e2ada8fd81017c55517f1471eb6eb2c5e789fc3de43f8ce62938c7d1836ec861730447e2ada8fd81017d80549251151584029115158516928b16929092171790558851998a018952600019808b528a8601908152988a01878152938a0196875260029092529390925295517f89832631fb3c3307a103ba2c84ab569c64d6182a18893dcd163f0f1c2090733a5593517f89832631fb3c3307a103ba2c84ab569c64d6182a18893dcd163f0f1c2090733b5593517f89832631fb3c3307a103ba2c84ab569c64d6182a18893dcd163f0f1c2090733c8054925115159094029015159094169116179190911790556103f0565b600080546001600160a01b038381166001600160a01b0319831681178455604051919092169283917f8be0079c531659141344cd1fd0a4f28419497f9722a3daafe3b4186f6b6457e09190a35050565b80516001600160a01b03811681146103b857600080fd5b919050565b600080604083850312156103d057600080fd5b6103d9836103a1565b91506103e7602084016103a1565b90509250929050565b608051610d5d6104206000396000818161012a015281816103eb015281816104c101526105b40152610d5d6000f3fe608060405234801561001057600080fd5b506004361061010b5760003560e01c806374f068c0116100a2578063a70c6a7811610071578063a70c6a78146102ac578063d2b5b72c146102f6578063db4b56ed14610309578063f0f4426014610329578063f2fde38b1461033c57600080fd5b806374f068c0146101f45780638da5cb5b1461025757806391f411da146102685780639f8a13d71461027157600080fd5b80635bc50fc7116100de5780635bc50fc71461019d57806361d027b3146101b0578063715018a6146101c3578063726fb2a5146101cb57600080fd5b80630f574ba71461011057806311eac85514610125578063144b6bd1146101695780632aaf39321461018a575b600080fd5b61012361011e366004610b98565b61034f565b005b61014c7f000000000000000000000000000000000000000000000000000000000000000081565b6040516001600160a01b0390911681526020015b60405180910390f35b61017c610177366004610bcd565b610700565b604051908152602001610160565b610123610198366004610b98565b610748565b6101236101ab366004610bf6565b6107dc565b60045461014c906001600160a01b031681565b6101236108d2565b61017c6101d9366004610bcd565b6001600160a01b031660009081526003602052604090205490565b61022f610202366004610b98565b60056020526000908152604090208054600182015460029092015490919060ff8082169161010090041684565b6040805194855260208501939093529015159183019190915215156060820152608001610160565b6000546001600160a01b031661014c565b61017c60025481565b61029c61027f366004610bcd565b6001600160a01b0316600090815260036020526040902054421090565b6040519015158152602001610160565b6102bf6102ba366004610b98565b6108e6565b6040516101609190815181526020808301519082015260408083015115159082015260609182015115159181019190915260800190565b610123610304366004610c4c565b61099e565b61017c610317366004610bcd565b60036020526000908152604090205481565b610123610337366004610bcd565b610a0a565b61012361034a366004610bcd565b610ab6565b610357610af1565b600081118015610368575060188111155b6103b95760405162461bcd60e51b815260206004820152601d60248201527f496e76616c696420737562736372697074696f6e206475726174696f6e00000060448201526064015b60405180910390fd5b6000816002546103c99190610c8c565b6040516370a0823160e01b815233600482015290915081906001600160a01b037f000000000000000000000000000000000000000000000000000000000000000016906370a0823190602401602060405180830381865afa158015610432573d6000803e3d6000fd5b505050506040513d601f19601f820116820180604052508101906104569190610ca9565b10156104a45760405162461bcd60e51b815260206004820152601960248201527f496e73756666696369656e7420555344432062616c616e63650000000000000060448201526064016103b0565b604051636eb1769f60e11b815233600482015230602482015281907f00000000000000000000000000000000000000000000000000000000000000006001600160a01b03169063dd62ed3e90604401602060405180830381865afa158015610510573d6000803e3d6000fd5b505050506040513d601f19601f820116820180604052508101906105349190610ca9565b10156105825760405162461bcd60e51b815260206004820152601b60248201527f496e73756666696369656e74205553444320616c6c6f77616e6365000000000060448201526064016103b0565b600480546040516323b872dd60e01b815233928101929092526001600160a01b039081166024830152604482018390527f000000000000000000000000000000000000000000000000000000000000000016906323b872dd906064016020604051808303816000875af11580156105fd573d6000803e3d6000fd5b505050506040513d601f19601f820116820180604052508101906106219190610cc2565b6106645760405162461bcd60e51b81526020600482015260146024820152731554d110c81d1c985b9cd9995c8819985a5b195960621b60448201526064016103b0565b33600090815260036020526040812054904282116106825742610684565b815b905060006106958562278d00610c8c565b61069f9083610cdf565b33600081815260036020908152604091829020849055815184815290810189905292935090917ff94991dcbea6e8ac439cbc93bd9c62a4d39f04e0ad656df9a703f13552c2787f910160405180910390a2505050506106fd60018055565b50565b6001600160a01b0381166000908152600360205260408120544281116107295750600092915050565b620151806107374283610cf2565b6107419190610d05565b9392505050565b610750610b1b565b600081116107a05760405162461bcd60e51b815260206004820152601c60248201527f5072696365206d7573742062652067726561746572207468616e20300000000060448201526064016103b0565b60028190556040518181527f66cbca4f3c64fecf1dcb9ce094abcf7f68c3450a1d4e3a8e917dd621edb4ebe0906020015b60405180910390a150565b6107e4610b1b565b60028511156108295760405162461bcd60e51b815260206004820152601160248201527024b73b30b634b210383630b7103a34b2b960791b60448201526064016103b0565b6040805160808101825285815260208082018681528515158385019081528515156060850190815260008b81526005855286902094518555915160018501555160029093018054915161ffff1990921693151561ff001916939093176101009115159190910217909155815186815290810185905286917fa589e6727a262137281e0ecfab2be28c41f7e032ab4a84f6937c649284012361910160405180910390a25050505050565b6108da610b1b565b6108e46000610b48565b565b604080516080810182526000808252602082018190529181018290526060810191909152600282111561094f5760405162461bcd60e51b815260206004820152601160248201527024b73b30b634b210383630b7103a34b2b960791b60448201526064016103b0565b506000908152600560209081526040918290208251608081018452815481526001820154928101929092526002015460ff80821615159383019390935261010090049091161515606082015290565b6109a6610b1b565b6001600160a01b038216600090815260036020526040812054904282116109cd57426109cf565b815b90506109de8362015180610c8c565b6109e89082610cdf565b6001600160a01b03909416600090815260036020526040902093909355505050565b610a12610b1b565b6001600160a01b038116610a685760405162461bcd60e51b815260206004820152601860248201527f496e76616c69642074726561737572792061646472657373000000000000000060448201526064016103b0565b600480546001600160a01b0319166001600160a01b0383169081179091556040519081527f7dae230f18360d76a040c81f050aa14eb9d6dc7901b20fc5d855e2a20fe814d1906020016107d1565b610abe610b1b565b6001600160a01b038116610ae857604051631e4fbdf760e01b8152600060048201526024016103b0565b6106fd81610b48565b600260015403610b1457604051633ee5aeb560e01b815260040160405180910390fd5b6002600155565b6000546001600160a01b031633146108e45760405163118cdaa760e01b81523360048201526024016103b0565b600080546001600160a01b038381166001600160a01b0319831681178455604051919092169283917f8be0079c531659141344cd1fd0a4f28419497f9722a3daafe3b4186f6b6457e09190a35050565b600060208284031215610baa57600080fd5b5035919050565b80356001600160a01b0381168114610bc857600080fd5b919050565b600060208284031215610bdf57600080fd5b61074182610bb1565b80151581146106fd57600080fd5b600080600080600060a08688031215610c0e57600080fd5b8535945060208601359350604086013592506060860135610c2e81610be8565b91506080860135610c3e81610be8565b809150509295509295909350565b60008060408385031215610c5f57600080fd5b610c6883610bb1565b946020939093013593505050565b634e487b7160e01b600052601160045260246000fd5b8082028115828204841417610ca357610ca3610c76565b92915050565b600060208284031215610cbb57600080fd5b5051919050565b600060208284031215610cd457600080fd5b815161074181610be8565b80820180821115610ca357610ca3610c76565b81810381811115610ca357610ca3610c76565b600082610d2257634e487b7160e01b600052601260045260246000fd5b50049056fea26469706673582212207f142488a591c75bc63d94de53a2cfd27c5136e42c7333175aefaf3c46efad6a64736f6c63430008140033",
  "linkReferences": {},
  "deployedLinkReferences": {}
}