{
  "_format": "hh-sol-artifact-1",
  "contractName": "BillingPlanManager",
  "sourceName": "contracts/BillingPlanManager.sol",
  "abi": [
    {
      "inputs": [
        {
          "internalType": "address",
          "name": "_usdcToken",
          "type": "address"
        }
      ],
      "stateMutability": "nonpayable",
      "type": "constructor"
    },
    {
      "inputs": [
        {
          "internalType": "address",
          "name": "owner",
          "type": "address"
        }
      ],
      "name": "OwnableInvalidOwner",
      "type": "error"
    },
    {
      "inputs": [
        {
          "internalType": "address",
          "name": "account",
          "type": "address"
        }
      ],
      "name": "OwnableUnauthorizedAccount",
      "type": "error"
    },
    {
      "inputs": [],
      "name": "ReentrancyGuardReentrantCall",
      "type": "error"
    },
    {
      "anonymous": false,
      "inputs": [
        {
          "indexed": true,
          "internalType": "address",
          "name": "previousOwner",
          "type": "address"
        },
        {
          "indexed": true,
          "internalType": "address",
          "name": "newOwner",
          "type": "address"
        }
      ],
      "name": "OwnershipTransferred",
      "type": "event"
    },
    {
      "anonymous": false,
      "inputs": [
        {
          "indexed": true,
          "internalType": "string",
          "name": "planId",
          "type": "string"
        },
        {
          "indexed": true,
          "internalType": "address",
          "name": "subscriber",
          "type": "address"
        },
        {
          "indexed": false,
          "internalType": "uint256",
          "name": "amount",
          "type": "uint256"
        }
      ],
      "name": "PaymentProcessed",
      "type": "event"
    },
    {
      "anonymous": false,
      "inputs": [
        {
          "indexed": true,
          "internalType": "string",
          "name": "planId",
          "type": "string"
        },
        {
          "indexed": true,
          "internalType": "address",
          "name": "creator",
          "type": "address"
        },
        {
          "indexed": false,
          "internalType": "string",
          "name": "name",
          "type": "string"
        },
        {
          "indexed": false,
          "internalType": "uint256",
          "name": "amount",
          "type": "uint256"
        }
      ],
      "name": "PlanCreated",
      "type": "event"
    },
    {
      "anonymous": false,
      "inputs": [
        {
          "indexed": true,
          "internalType": "string",
          "name": "planId",
          "type": "string"
        }
      ],
      "name": "PlanDeactivated",
      "type": "event"
    },
    {
      "anonymous": false,
      "inputs": [
        {
          "indexed": true,
          "internalType": "string",
          "name": "planId",
          "type": "string"
        },
        {
          "indexed": false,
          "internalType": "string",
          "name": "name",
          "type": "string"
        },
        {
          "indexed": false,
          "internalType": "uint256",
          "name": "amount",
          "type": "uint256"
        }
      ],
      "name": "PlanUpdated",
      "type": "event"
    },
    {
      "anonymous": false,
      "inputs": [
        {
          "indexed": true,
          "internalType": "string",
          "name": "planId",
          "type": "string"
        },
        {
          "indexed": true,
          "internalType": "address",
          "name": "subscriber",
          "type": "address"
        }
      ],
      "name": "SubscriptionCanceled",
      "type": "event"
    },
    {
      "anonymous": false,
      "inputs": [
        {
          "indexed": true,
          "internalType": "string",
          "name": "planId",
          "type": "string"
        },
        {
          "indexed": true,
          "internalType": "address",
          "name": "subscriber",
          "type": "address"
        },
        {
          "indexed": false,
          "internalType": "uint256",
          "name": "nextPaymentDue",
          "type": "uint256"
        }
      ],
      "name": "SubscriptionCreated",
      "type": "event"
    },
    {
      "inputs": [
        {
          "internalType": "string",
          "name": "",
          "type": "string"
        }
      ],
      "name": "billingPlans",
      "outputs": [
        {
          "internalType": "string",
          "name": "planId",
          "type": "string"
        },
        {
          "internalType": "address",
          "name": "creator",
          "type": "address"
        },
        {
          "internalType": "string",
          "name": "name",
          "type": "string"
        },
        {
          "internalType": "uint256",
          "name": "amount",
          "type": "uint256"
        },
        {
          "internalType": "uint256",
          "name": "interval",
          "type": "uint256"
        },
        {
          "internalType": "address",
          "name": "recipientWallet",
          "type": "address"
        },
        {
          "internalType": "bool",
          "name": "isActive",
          "type": "bool"
        },
        {
          "internalType": "uint256",
          "name": "createdAt",
          "type": "uint256"
        }
      ],
      "stateMutability": "view",
      "type": "function"
    },
    {
      "inputs": [
        {
          "internalType": "string",
          "name": "_planId",
          "type": "string"
        }
      ],
      "name": "cancelSubscription",
      "outputs": [],
      "stateMutability": "nonpayable",
      "type": "function"
    },
    {
      "inputs": [
        {
          "internalType": "string",
          "name": "_planId",
          "type": "string"
        },
        {
          "internalType": "string",
          "name": "_name",
          "type": "string"
        },
        {
          "internalType": "uint256",
          "name": "_amount",
          "type": "uint256"
        },
        {
          "internalType": "uint256",
          "name": "_interval",
          "type": "uint256"
        },
        {
          "internalType": "address",
          "name": "_recipientWallet",
          "type": "address"
        }
      ],
      "name": "createPlan",
      "outputs": [],
      "stateMutability": "nonpayable",
      "type": "function"
    },
    {
      "inputs": [
        {
          "internalType": "string",
          "name": "_planId",
          "type": "string"
        }
      ],
      "name": "deactivatePlan",
      "outputs": [],
      "stateMutability": "nonpayable",
      "type": "function"
    },
    {
      "inputs": [
        {
          "internalType": "string",
          "name": "_planId",
          "type": "string"
        }
      ],
      "name": "getPlan",
      "outputs": [
        {
          "components": [
            {
              "internalType": "string",
              "name": "planId",
              "type": "string"
            },
            {
              "internalType": "address",
              "name": "creator",
              "type": "address"
            },
            {
              "internalType": "string",
              "name": "name",
              "type": "string"
            },
            {
              "internalType": "uint256",
              "name": "amount",
              "type": "uint256"
            },
            {
              "internalType": "uint256",
              "name": "interval",
              "type": "uint256"
            },
            {
              "internalType": "address",
              "name": "recipientWallet",
              "type": "address"
            },
            {
              "internalType": "bool",
              "name": "isActive",
              "type": "bool"
            },
            {
              "internalType": "uint256",
              "name": "createdAt",
              "type": "uint256"
            }
          ],
          "internalType": "struct BillingPlanManager.BillingPlan",
          "name": "",
          "type": "tuple"
        }
      ],
      "stateMutability": "view",
      "type": "function"
    },
    {
      "inputs": [
        {
          "internalType": "string",
          "name": "_planId",
          "type": "string"
        }
      ],
      "name": "getPlanSubscriptions",
      "outputs": [
        {
          "components": [
            {
              "internalType": "string",
              "name": "planId",
              "type": "string"
            },
            {
              "internalType": "address",
              "name": "subscriber",
              "type": "address"
            },
            {
              "internalType": "uint256",
              "name": "nextPaymentDue",
              "type": "uint256"
            },
            {
              "internalType": "bool",
              "name": "isActive",
              "type": "bool"
            },
            {
              "internalType": "uint256",
              "name": "createdAt",
              "type": "uint256"
            },
            {
              "internalType": "uint256",
              "name": "lastPayment",
              "type": "uint256"
            }
          ],
          "internalType": "struct BillingPlanManager.Subscription[]",
          "name": "",
          "type": "tuple[]"
        }
      ],
      "stateMutability": "view",
      "type": "function"
    },
    {
      "inputs": [
        {
          "internalType": "address",
          "name": "_user",
          "type": "address"
        },
        {
          "internalType": "string",
          "name": "_planId",
          "type": "string"
        }
      ],
      "name": "getSubscription",
      "outputs": [
        {
          "components": [
            {
              "internalType": "string",
              "name": "planId",
              "type": "string"
            },
            {
              "internalType": "address",
              "name": "subscriber",
              "type": "address"
            },
            {
              "internalType": "uint256",
              "name": "nextPaymentDue",
              "type": "uint256"
            },
            {
              "internalType": "bool",
              "name": "isActive",
              "type": "bool"
            },
            {
              "internalType": "uint256",
              "name": "createdAt",
              "type": "uint256"
            },
            {
              "internalType": "uint256",
              "name": "lastPayment",
              "type": "uint256"
            }
          ],
          "internalType": "struct BillingPlanManager.Subscription",
          "name": "",
          "type": "tuple"
        }
      ],
      "stateMutability": "view",
      "type": "function"
    },
    {
      "inputs": [
        {
          "internalType": "address",
          "name": "_user",
          "type": "address"
        }
      ],
      "name": "getUserPlans",
      "outputs": [
        {
          "internalType": "string[]",
          "name": "",
          "type": "string[]"
        }
      ],
      "stateMutability": "view",
      "type": "function"
    },
    {
      "inputs": [
        {
          "internalType": "address",
          "name": "_user",
          "type": "address"
        },
        {
          "internalType": "string",
          "name": "_planId",
          "type": "string"
        }
      ],
      "name": "hasActiveSubscription",
      "outputs": [
        {
          "internalType": "bool",
          "name": "",
          "type": "bool"
        }
      ],
      "stateMutability": "view",
      "type": "function"
    },
    {
      "inputs": [],
      "name": "owner",
      "outputs": [
        {
          "internalType": "address",
          "name": "",
          "type": "address"
        }
      ],
      "stateMutability": "view",
      "type": "function"
    },
    {
      "inputs": [
        {
          "internalType": "string",
          "name": "",
          "type": "string"
        },
        {
          "internalType": "uint256",
          "name": "",
          "type": "uint256"
        }
      ],
      "name": "planSubscriptions",
      "outputs": [
        {
          "internalType": "string",
          "name": "planId",
          "type": "string"
        },
        {
          "internalType": "address",
          "name": "subscriber",
          "type": "address"
        },
        {
          "internalType": "uint256",
          "name": "nextPaymentDue",
          "type": "uint256"
        },
        {
          "internalType": "bool",
          "name": "isActive",
          "type": "bool"
        },
        {
          "internalType": "uint256",
          "name": "createdAt",
          "type": "uint256"
        },
        {
          "internalType": "uint256",
          "name": "lastPayment",
          "type": "uint256"
        }
      ],
      "stateMutability": "view",
      "type": "function"
    },
    {
      "inputs": [
        {
          "internalType": "string",
          "name": "_planId",
          "type": "string"
        },
        {
          "internalType": "address",
          "name": "_subscriber",
          "type": "address"
        }
      ],
      "name": "processPayment",
      "outputs": [],
      "stateMutability": "nonpayable",
      "type": "function"
    },
    {
      "inputs": [],
      "name": "renounceOwnership",
      "outputs": [],
      "stateMutability": "nonpayable",
      "type": "function"
    },
    {
      "inputs": [
        {
          "internalType": "string",
          "name": "_planId",
          "type": "string"
        }
      ],
      "name": "subscribe",
      "outputs": [],
      "stateMutability": "nonpayable",
      "type": "function"
    },
    {
      "inputs": [
        {
          "internalType": "address",
          "name": "newOwner",
          "type": "address"
        }
      ],
      "name": "transferOwnership",
      "outputs": [],
      "stateMutability": "nonpayable",
      "type": "function"
    },
    {
      "inputs": [
        {
          "internalType": "string",
          "name": "_planId",
          "type": "string"
        },
        {
          "internalType": "string",
          "name": "_name",
          "type": "string"
        },
        {
          "internalType": "uint256",
          "name": "_amount",
          "type": "uint256"
        },
        {
          "internalType": "address",
          "name": "_recipientWallet",
          "type": "address"
        }
      ],
      "name": "updatePlan",
      "outputs": [],
      "stateMutability": "nonpayable",
      "type": "function"
    },
    {
      "inputs": [],
      "name": "usdcToken",
      "outputs": [
        {
          "internalType": "contract IERC20",
          "name": "",
          "type": "address"
        }
      ],
      "stateMutability": "view",
      "type": "function"
    },
    {
      "inputs": [
        {
          "internalType": "address",
          "name": "",
          "type": "address"
        },
        {
          "internalType": "uint256",
          "name": "",
          "type": "uint256"
        }
      ],
      "name": "userPlans",
      "outputs": [
        {
          "internalType": "string",
          "name": "",
          "type": "string"
        }
      ],
      "stateMutability": "view",
      "type": "function"
    },
    {
      "inputs": [
        {
          "internalType": "address",
          "name": "",
          "type": "address"
        },
        {
          "internalType": "string",
          "name": "",
          "type": "string"
        }
      ],
      "name": "userSubscriptions",
      "outputs": [
        {
          "internalType": "bool",
          "name": "",
          "type": "bool"
        }
      ],
      "stateMutability": "view",
      "type": "function"
    }
  ],
  "bytecode": "0x60a06040523480156200001157600080fd5b5060405162002b0138038062002b018339810160408190526200003491620000d0565b600160005533806200006057604051631e4fbdf760e01b81526000600482015260240160405180910390fd5b6200006b816200007e565b506001600160a01b031660805262000102565b600180546001600160a01b038381166001600160a01b0319831681179093556040519116919082907f8be0079c531659141344cd1fd0a4f28419497f9722a3daafe3b4186f6b6457e090600090a35050565b600060208284031215620000e357600080fd5b81516001600160a01b0381168114620000fb57600080fd5b9392505050565b6080516129d56200012c6000396000818161015401528181610fd50152611ee801526129d56000f3fe608060405234801561001057600080fd5b50600436106101215760003560e01c80637b5531ac116100ad578063a4539e2a11610071578063a4539e2a146102dc578063b4a5dc6514610303578063b703981b14610316578063f2fde38b14610336578063f6376f111461034957600080fd5b80637b5531ac146102605780638012c3a114610273578063831820f0146102985780638a6dc612146102b85780638da5cb5b146102cb57600080fd5b80632509b9d9116100f45780632509b9d9146101f257806328cf6b7d14610205578063507e788814610225578063715018a61461023857806377fa69d21461024057600080fd5b80630e5a5fc01461012657806311eac8551461014f57806315880e241461018e5780631792b28f146101dd575b600080fd5b61013961013436600461220e565b61035c565b604051610146919061229b565b60405180910390f35b6101767f000000000000000000000000000000000000000000000000000000000000000081565b6040516001600160a01b039091168152602001610146565b6101cd61019c36600461235c565b6005602090815260009283526040909220815180830184018051928152908401929093019190912091525460ff1681565b6040519015158152602001610146565b6101f06101eb3660046123aa565b610567565b005b6101f0610200366004612428565b6106a0565b61021861021336600461235c565b610a35565b604051610146919061250c565b6101f061023336600461220e565b610d34565b6101f061123a565b61025361024e36600461220e565b61124e565b6040516101469190612526565b6101cd61026e36600461235c565b6113a3565b610286610281366004612588565b6113e4565b604051610146969594939291906125cd565b6102ab6102a6366004612612565b6114e2565b604051610146919061263c565b6101f06102c636600461220e565b61159b565b6001546001600160a01b0316610176565b6102ef6102ea36600461220e565b6116c7565b60405161014698979695949392919061264f565b6101f061031136600461220e565b611842565b6103296103243660046126b5565b611a2b565b60405161014691906126d0565b6101f06103443660046126b5565b611b0f565b6101f0610357366004612725565b611b4a565b6103b86040518061010001604052806060815260200160006001600160a01b0316815260200160608152602001600081526020016000815260200160006001600160a01b03168152602001600015158152602001600081525090565b6002826040516103c89190612773565b9081526020016040518091039020604051806101000160405290816000820180546103f29061278f565b80601f016020809104026020016040519081016040528092919081815260200182805461041e9061278f565b801561046b5780601f106104405761010080835404028352916020019161046b565b820191906000526020600020905b81548152906001019060200180831161044e57829003601f168201915b505050918352505060018201546001600160a01b0316602082015260028201805460409092019161049b9061278f565b80601f01602080910402602001604051908101604052809291908181526020018280546104c79061278f565b80156105145780601f106104e957610100808354040283529160200191610514565b820191906000526020600020905b8154815290600101906020018083116104f757829003601f168201915b5050509183525050600382015460208201526004820154604082015260058201546001600160a01b0381166060830152600160a01b900460ff161515608082015260069091015460a09091015292915050565b60006002856040516105799190612773565b90815260405190819003602001902060018101549091506001600160a01b031633146105ec5760405162461bcd60e51b815260206004820152601c60248201527f4f6e6c7920706c616e2063726561746f722063616e207570646174650000000060448201526064015b60405180910390fd5b6005810154600160a01b900460ff166106175760405162461bcd60e51b81526004016105e3906127c9565b600281016106258582612843565b50600381018390556005810180546001600160a01b0319166001600160a01b038416179055604051610658908690612773565b60405180910390207febea9c6b6b9e5953bf60a8a6574d16b3cc9e334e5ec950fc64202d3f5151cf438585604051610691929190612903565b60405180910390a25050505050565b60008551116106f15760405162461bcd60e51b815260206004820152601760248201527f506c616e2049442063616e6e6f7420626520656d70747900000000000000000060448201526064016105e3565b60008451116107425760405162461bcd60e51b815260206004820152601960248201527f506c616e206e616d652063616e6e6f7420626520656d7074790000000000000060448201526064016105e3565b600083116107925760405162461bcd60e51b815260206004820152601d60248201527f416d6f756e74206d7573742062652067726561746572207468616e203000000060448201526064016105e3565b600082116107e25760405162461bcd60e51b815260206004820152601f60248201527f496e74657276616c206d7573742062652067726561746572207468616e20300060448201526064016105e3565b6001600160a01b0381166108385760405162461bcd60e51b815260206004820152601860248201527f496e76616c696420726563697069656e742077616c6c6574000000000000000060448201526064016105e3565b6002856040516108489190612773565b90815260405190819003602001902080546108629061278f565b1590506108aa5760405162461bcd60e51b8152602060048201526016602482015275506c616e20494420616c72656164792065786973747360501b60448201526064016105e3565b604080516101008101825286815233602082015280820186905260608101859052608081018490526001600160a01b03831660a0820152600160c08201524260e082015290516002906108fe908890612773565b9081526040519081900360200190208151819061091b9082612843565b5060208201516001820180546001600160a01b0319166001600160a01b03909216919091179055604082015160028201906109569082612843565b5060608201516003808301919091556080830151600483015560a083015160058301805460c08601511515600160a01b026001600160a81b03199091166001600160a01b039093169290921791909117905560e0909201516006909101553360009081526020918252604081208054600181018255908252919020016109dc8682612843565b5060405133906109ed908790612773565b60405180910390207fd3099ad4016f2e313d017831a9d18350bff5e9dfcefd10e0dc786c20fbb7a8788686604051610a26929190612903565b60405180910390a35050505050565b610a796040518060c001604052806060815260200160006001600160a01b031681526020016000815260200160001515815260200160008152602001600081525090565b6001600160a01b038316600090815260056020526040908190209051610aa0908490612773565b9081526040519081900360200190205460ff16610af75760405162461bcd60e51b8152602060048201526015602482015274139bc81cdd589cd8dc9a5c1d1a5bdb88199bdd5b99605a1b60448201526064016105e3565b6000600483604051610b099190612773565b9081526020016040518091039020805480602002602001604051908101604052809291908181526020016000905b82821015610c4157838290600052602060002090600602016040518060c0016040529081600082018054610b6a9061278f565b80601f0160208091040260200160405190810160405280929190818152602001828054610b969061278f565b8015610be35780601f10610bb857610100808354040283529160200191610be3565b820191906000526020600020905b815481529060010190602001808311610bc657829003601f168201915b50505091835250506001828101546001600160a01b031660208084019190915260028401546040840152600384015460ff16151560608401526004840154608084015260059093015460a09092019190915291835292019101610b37565b50505050905060005b8151811015610ce557846001600160a01b0316828281518110610c6f57610c6f612925565b6020026020010151602001516001600160a01b0316148015610cab5750818181518110610c9e57610c9e612925565b6020026020010151606001515b15610cd357818181518110610cc257610cc2612925565b602002602001015192505050610d2e565b80610cdd81612951565b915050610c4a565b5060405162461bcd60e51b815260206004820152601d60248201527f41637469766520737562736372697074696f6e206e6f7420666f756e6400000060448201526064016105e3565b92915050565b610d3c6120c2565b6000600282604051610d4e9190612773565b908152602001604051809103902060405180610100016040529081600082018054610d789061278f565b80601f0160208091040260200160405190810160405280929190818152602001828054610da49061278f565b8015610df15780601f10610dc657610100808354040283529160200191610df1565b820191906000526020600020905b815481529060010190602001808311610dd457829003601f168201915b505050918352505060018201546001600160a01b03166020820152600282018054604090920191610e219061278f565b80601f0160208091040260200160405190810160405280929190818152602001828054610e4d9061278f565b8015610e9a5780601f10610e6f57610100808354040283529160200191610e9a565b820191906000526020600020905b815481529060010190602001808311610e7d57829003601f168201915b5050509183525050600382015460208201526004820154604082015260058201546001600160a01b0381166060830152600160a01b900460ff161515608082015260069091015460a09091015260c0810151909150610f0b5760405162461bcd60e51b81526004016105e3906127c9565b33600090815260056020526040908190209051610f29908490612773565b9081526040519081900360200190205460ff1615610f895760405162461bcd60e51b815260206004820152601f60248201527f416c7265616479207375627363726962656420746f207468697320706c616e0060448201526064016105e3565b6000816080015142610f9b919061296a565b60a083015160608401516040516323b872dd60e01b81523360048201526001600160a01b03928316602482015260448101919091529192507f000000000000000000000000000000000000000000000000000000000000000016906323b872dd906064016020604051808303816000875af115801561101e573d6000803e3d6000fd5b505050506040513d601f19601f82011682018060405250810190611042919061297d565b61107f5760405162461bcd60e51b815260206004820152600e60248201526d14185e5b595b9d0819985a5b195960921b60448201526064016105e3565b6040805160c08101825284815233602082015280820183905260016060820152426080820181905260a082015290516004906110bc908690612773565b9081526040516020918190038201902080546001810182556000918252919020825183926006029091019081906110f39082612843565b50602082810151600183810180546001600160a01b0319166001600160a01b03909316929092179091556040808501516002850155606085015160038501805460ff19169115159190911790556080850151600485015560a09094015160059384015533600090815292909152908290209151909190611174908790612773565b908152604051908190036020018120805492151560ff199093169290921790915533906111a2908690612773565b604051908190038120848252907f4b0dfafaf720b29efcfc66a63fcf51af2bc84eb4626262d08b283d8af43b85ab9060200160405180910390a360405133906111ec908690612773565b60405190819003812060608601518252907fbc20a2c304d0bf6c3583f576486e9b9ce8588edefaf29754907a433adb765c8a9060200160405180910390a35050506112376001600055565b50565b6112426120ec565b61124c6000612119565b565b60606004826040516112609190612773565b9081526020016040518091039020805480602002602001604051908101604052809291908181526020016000905b8282101561139857838290600052602060002090600602016040518060c00160405290816000820180546112c19061278f565b80601f01602080910402602001604051908101604052809291908181526020018280546112ed9061278f565b801561133a5780601f1061130f5761010080835404028352916020019161133a565b820191906000526020600020905b81548152906001019060200180831161131d57829003601f168201915b50505091835250506001828101546001600160a01b031660208084019190915260028401546040840152600384015460ff16151560608401526004840154608084015260059093015460a0909201919091529183529201910161128e565b505050509050919050565b6001600160a01b03821660009081526005602052604080822090516113c9908490612773565b9081526040519081900360200190205460ff16905092915050565b8151602081840181018051600482529282019185019190912091905280548290811061140f57600080fd5b9060005260206000209060060201600091509150508060000180546114339061278f565b80601f016020809104026020016040519081016040528092919081815260200182805461145f9061278f565b80156114ac5780601f10611481576101008083540402835291602001916114ac565b820191906000526020600020905b81548152906001019060200180831161148f57829003601f168201915b505050600184015460028501546003860154600487015460059097015495966001600160a01b039093169591945060ff16925086565b600360205281600052604060002081815481106114fe57600080fd5b9060005260206000200160009150915050805461151a9061278f565b80601f01602080910402602001604051908101604052809291908181526020018280546115469061278f565b80156115935780601f1061156857610100808354040283529160200191611593565b820191906000526020600020905b81548152906001019060200180831161157657829003601f168201915b505050505081565b60006002826040516115ad9190612773565b90815260405190819003602001902060018101549091506001600160a01b0316331461161b5760405162461bcd60e51b815260206004820181905260248201527f4f6e6c7920706c616e2063726561746f722063616e206465616374697661746560448201526064016105e3565b6005810154600160a01b900460ff166116765760405162461bcd60e51b815260206004820152601860248201527f506c616e20697320616c726561647920696e616374697665000000000000000060448201526064016105e3565b60058101805460ff60a01b19169055604051611693908390612773565b604051908190038120907fbaf60d63bd43c805263f9c116013ffca9b63770a449c34fdbd3bc3ef9d20d64a90600090a25050565b80516020818301810180516002825292820191909301209152805481906116ed9061278f565b80601f01602080910402602001604051908101604052809291908181526020018280546117199061278f565b80156117665780601f1061173b57610100808354040283529160200191611766565b820191906000526020600020905b81548152906001019060200180831161174957829003601f168201915b505050600184015460028501805494956001600160a01b039092169491935091506117909061278f565b80601f01602080910402602001604051908101604052809291908181526020018280546117bc9061278f565b80156118095780601f106117de57610100808354040283529160200191611809565b820191906000526020600020905b8154815290600101906020018083116117ec57829003601f168201915b50505050600383015460048401546005850154600690950154939491939092506001600160a01b03821691600160a01b900460ff169088565b33600090815260056020526040908190209051611860908390612773565b9081526040519081900360200190205460ff166118bf5760405162461bcd60e51b815260206004820152601c60248201527f4e6f2061637469766520737562736372697074696f6e20666f756e640000000060448201526064016105e3565b60006004826040516118d19190612773565b9081526020016040518091039020905060005b8154811015611a2657336001600160a01b031682828154811061190957611909612925565b60009182526020909120600160069092020101546001600160a01b0316148015611958575081818154811061194057611940612925565b600091825260209091206003600690920201015460ff165b15611a1457600082828154811061197157611971612925565b60009182526020808320600692909202909101600301805460ff1916931515939093179092553381526005909152604080822090516119b1908690612773565b908152604051908190036020018120805492151560ff199093169290921790915533906119df908590612773565b604051908190038120907fc7d5cbdde41263c0f88042f97e861fa7d67b730043acc6785890d9472ecaeeab90600090a3505050565b80611a1e81612951565b9150506118e4565b505050565b6001600160a01b0381166000908152600360209081526040808320805482518185028101850190935280835260609492939192909184015b82821015611398578382906000526020600020018054611a829061278f565b80601f0160208091040260200160405190810160405280929190818152602001828054611aae9061278f565b8015611afb5780601f10611ad057610100808354040283529160200191611afb565b820191906000526020600020905b815481529060010190602001808311611ade57829003601f168201915b505050505081526020019060010190611a63565b611b176120ec565b6001600160a01b038116611b4157604051631e4fbdf760e01b8152600060048201526024016105e3565b61123781612119565b611b526120c2565b6000600283604051611b649190612773565b908152602001604051809103902060405180610100016040529081600082018054611b8e9061278f565b80601f0160208091040260200160405190810160405280929190818152602001828054611bba9061278f565b8015611c075780601f10611bdc57610100808354040283529160200191611c07565b820191906000526020600020905b815481529060010190602001808311611bea57829003601f168201915b505050918352505060018201546001600160a01b03166020820152600282018054604090920191611c379061278f565b80601f0160208091040260200160405190810160405280929190818152602001828054611c639061278f565b8015611cb05780601f10611c8557610100808354040283529160200191611cb0565b820191906000526020600020905b815481529060010190602001808311611c9357829003601f168201915b5050509183525050600382015460208201526004820154604082015260058201546001600160a01b0381166060830152600160a01b900460ff161515608082015260069091015460a09091015260c0810151909150611d215760405162461bcd60e51b81526004016105e3906127c9565b6001600160a01b038216600090815260056020526040908190209051611d48908590612773565b9081526040519081900360200190205460ff16611da75760405162461bcd60e51b815260206004820152601c60248201527f4e6f2061637469766520737562736372697074696f6e20666f756e640000000060448201526064016105e3565b6000600484604051611db99190612773565b908152602001604051809103902090506000805b825481101561206357846001600160a01b0316838281548110611df257611df2612925565b60009182526020909120600160069092020101546001600160a01b0316148015611e415750828181548110611e2957611e29612925565b600091825260209091206003600690920201015460ff165b1561205157828181548110611e5857611e58612925565b906000526020600020906006020160020154421015611eaf5760405162461bcd60e51b815260206004820152601360248201527214185e5b595b9d081b9bdd08191d59481e595d606a1b60448201526064016105e3565b60a084015160608501516040516323b872dd60e01b81526001600160a01b038881166004830152928316602482015260448101919091527f0000000000000000000000000000000000000000000000000000000000000000909116906323b872dd906064016020604051808303816000875af1158015611f33573d6000803e3d6000fd5b505050506040513d601f19601f82011682018060405250810190611f57919061297d565b611f945760405162461bcd60e51b815260206004820152600e60248201526d14185e5b595b9d0819985a5b195960921b60448201526064016105e3565b6080840151611fa3904261296a565b838281548110611fb557611fb5612925565b90600052602060002090600602016002018190555042838281548110611fdd57611fdd612925565b906000526020600020906006020160050181905550846001600160a01b03168660405161200a9190612773565b60405190819003812060608701518252907fbc20a2c304d0bf6c3583f576486e9b9ce8588edefaf29754907a433adb765c8a9060200160405180910390a360019150612063565b8061205b81612951565b915050611dcd565b50806120b15760405162461bcd60e51b815260206004820152601d60248201527f41637469766520737562736372697074696f6e206e6f7420666f756e6400000060448201526064016105e3565b5050506120be6001600055565b5050565b6002600054036120e557604051633ee5aeb560e01b815260040160405180910390fd5b6002600055565b6001546001600160a01b0316331461124c5760405163118cdaa760e01b81523360048201526024016105e3565b600180546001600160a01b038381166001600160a01b0319831681179093556040519116919082907f8be0079c531659141344cd1fd0a4f28419497f9722a3daafe3b4186f6b6457e090600090a35050565b634e487b7160e01b600052604160045260246000fd5b600082601f83011261219257600080fd5b813567ffffffffffffffff808211156121ad576121ad61216b565b604051601f8301601f19908116603f011681019082821181831017156121d5576121d561216b565b816040528381528660208588010111156121ee57600080fd5b836020870160208301376000602085830101528094505050505092915050565b60006020828403121561222057600080fd5b813567ffffffffffffffff81111561223757600080fd5b61224384828501612181565b949350505050565b60005b8381101561226657818101518382015260200161224e565b50506000910152565b6000815180845261228781602086016020860161224b565b601f01601f19169290920160200192915050565b60208152600082516101008060208501526122ba61012085018361226f565b60208601516001600160a01b0316604086810191909152860151858203601f190160608701529092506122ed838261226f565b92505060608501516080850152608085015160a085015260a085015161231e60c08601826001600160a01b03169052565b5060c085015180151560e08601525060e0949094015192909301919091525090565b80356001600160a01b038116811461235757600080fd5b919050565b6000806040838503121561236f57600080fd5b61237883612340565b9150602083013567ffffffffffffffff81111561239457600080fd5b6123a085828601612181565b9150509250929050565b600080600080608085870312156123c057600080fd5b843567ffffffffffffffff808211156123d857600080fd5b6123e488838901612181565b955060208701359150808211156123fa57600080fd5b5061240787828801612181565b9350506040850135915061241d60608601612340565b905092959194509250565b600080600080600060a0868803121561244057600080fd5b853567ffffffffffffffff8082111561245857600080fd5b61246489838a01612181565b9650602088013591508082111561247a57600080fd5b5061248788828901612181565b94505060408601359250606086013591506124a460808701612340565b90509295509295909350565b6000815160c084526124c560c085018261226f565b6020848101516001600160a01b031690860152604080850151908601526060808501511515908601526080808501519086015260a093840151949093019390935250919050565b60208152600061251f60208301846124b0565b9392505050565b6000602080830181845280855180835260408601915060408160051b870101925083870160005b8281101561257b57603f198886030184526125698583516124b0565b9450928501929085019060010161254d565b5092979650505050505050565b6000806040838503121561259b57600080fd5b823567ffffffffffffffff8111156125b257600080fd5b6125be85828601612181565b95602094909401359450505050565b60c0815260006125e060c083018961226f565b6001600160a01b039790971660208301525060408101949094529115156060840152608083015260a090910152919050565b6000806040838503121561262557600080fd5b61262e83612340565b946020939093013593505050565b60208152600061251f602083018461226f565b60006101008083526126638184018c61226f565b6001600160a01b038b811660208601528482036040860152909150612688828b61226f565b6060850199909952608084019790975250509290931660a0830152151560c082015260e001529392505050565b6000602082840312156126c757600080fd5b61251f82612340565b6000602080830181845280855180835260408601915060408160051b870101925083870160005b8281101561257b57603f1988860301845261271385835161226f565b945092850192908501906001016126f7565b6000806040838503121561273857600080fd5b823567ffffffffffffffff81111561274f57600080fd5b61275b85828601612181565b92505061276a60208401612340565b90509250929050565b6000825161278581846020870161224b565b9190910192915050565b600181811c908216806127a357607f821691505b6020821081036127c357634e487b7160e01b600052602260045260246000fd5b50919050565b602080825260129082015271506c616e206973206e6f742061637469766560701b604082015260600190565b601f821115611a2657600081815260208120601f850160051c8101602086101561281c5750805b601f850160051c820191505b8181101561283b57828155600101612828565b505050505050565b815167ffffffffffffffff81111561285d5761285d61216b565b6128718161286b845461278f565b846127f5565b602080601f8311600181146128a6576000841561288e5750858301515b600019600386901b1c1916600185901b17855561283b565b600085815260208120601f198616915b828110156128d5578886015182559484019460019091019084016128b6565b50858210156128f35787850151600019600388901b60f8161c191681555b5050505050600190811b01905550565b604081526000612916604083018561226f565b90508260208301529392505050565b634e487b7160e01b600052603260045260246000fd5b634e487b7160e01b600052601160045260246000fd5b6000600182016129635761296361293b565b5060010190565b80820180821115610d2e57610d2e61293b565b60006020828403121561298f57600080fd5b8151801515811461251f57600080fdfea26469706673582212206bb7e0c18e6288c6a57a06b4f2e289d83e9a711195d41d9754bd29cb8737a4be64736f6c63430008140033",
  "linkReferences": {},
  "deployedLinkReferences": {}
}